{
  "contractName": "WarrantCanary",
  "abi": [
    {
      "anonymous": false,
      "inputs": [
        {
          "indexed": false,
          "internalType": "uint256",
          "name": "warrantCanaryID",
          "type": "uint256"
        },
        {
          "indexed": false,
          "internalType": "address",
          "name": "oldTrustedThirdParty",
          "type": "address"
        },
        {
          "indexed": false,
          "internalType": "address",
          "name": "newTrustedThirdParty",
          "type": "address"
        }
      ],
      "name": "LogChangedTrustedThirdParty",
      "type": "event"
    },
    {
      "anonymous": false,
      "inputs": [
        {
          "indexed": false,
          "internalType": "uint256",
          "name": "warrantCanaryID",
          "type": "uint256"
        },
        {
          "indexed": false,
          "internalType": "string",
          "name": "purpose",
          "type": "string"
        },
        {
          "indexed": false,
          "internalType": "address",
          "name": "trustedThirdParty",
          "type": "address"
        }
      ],
      "name": "LogCreated",
      "type": "event"
    },
    {
      "anonymous": false,
      "inputs": [
        {
          "indexed": false,
          "internalType": "uint256",
          "name": "warrantCanaryID",
          "type": "uint256"
        }
      ],
      "name": "LogDeleted",
      "type": "event"
    },
    {
      "anonymous": false,
      "inputs": [
        {
          "indexed": false,
          "internalType": "uint256",
          "name": "warrantCanaryID",
          "type": "uint256"
        },
        {
          "indexed": false,
          "internalType": "uint256",
          "name": "oldExpirationBlock",
          "type": "uint256"
        },
        {
          "indexed": false,
          "internalType": "uint256",
          "name": "newExpirationBlock",
          "type": "uint256"
        }
      ],
      "name": "LogExpirationUpdated",
      "type": "event"
    },
    {
      "anonymous": false,
      "inputs": [
        {
          "indexed": false,
          "internalType": "uint256",
          "name": "warrantCanaryID",
          "type": "uint256"
        },
        {
          "indexed": false,
          "internalType": "uint256",
          "name": "amount",
          "type": "uint256"
        }
      ],
      "name": "LogFundsAdded",
      "type": "event"
    },
    {
      "anonymous": false,
      "inputs": [
        {
          "indexed": false,
          "internalType": "uint256",
          "name": "warrantCanaryID",
          "type": "uint256"
        },
        {
          "indexed": false,
          "internalType": "uint256",
          "name": "amount",
          "type": "uint256"
        }
      ],
      "name": "LogFundsWithdrawn",
      "type": "event"
    },
    {
      "anonymous": false,
      "inputs": [
        {
          "indexed": true,
          "internalType": "address",
          "name": "previousOwner",
          "type": "address"
        },
        {
          "indexed": true,
          "internalType": "address",
          "name": "newOwner",
          "type": "address"
        }
      ],
      "name": "OwnershipTransferred",
      "type": "event"
    },
    {
      "anonymous": false,
      "inputs": [
        {
          "indexed": false,
          "internalType": "address",
          "name": "account",
          "type": "address"
        }
      ],
      "name": "Paused",
      "type": "event"
    },
    {
      "anonymous": false,
      "inputs": [
        {
          "indexed": false,
          "internalType": "address",
          "name": "account",
          "type": "address"
        }
      ],
      "name": "Unpaused",
      "type": "event"
    },
    {
      "inputs": [],
      "name": "IDcount",
      "outputs": [
        {
          "internalType": "uint256",
          "name": "",
          "type": "uint256"
        }
      ],
      "stateMutability": "view",
      "type": "function",
      "constant": true
    },
    {
      "inputs": [
        {
          "internalType": "address",
          "name": "",
          "type": "address"
        },
        {
          "internalType": "uint256",
          "name": "",
          "type": "uint256"
        }
      ],
      "name": "IDsOwned",
      "outputs": [
        {
          "internalType": "uint256",
          "name": "",
          "type": "uint256"
        }
      ],
      "stateMutability": "view",
      "type": "function",
      "constant": true
    },
    {
      "inputs": [
        {
          "internalType": "address",
          "name": "",
          "type": "address"
        },
        {
          "internalType": "uint256",
          "name": "",
          "type": "uint256"
        }
      ],
      "name": "IDsTrusted",
      "outputs": [
        {
          "internalType": "uint256",
          "name": "",
          "type": "uint256"
        }
      ],
      "stateMutability": "view",
      "type": "function",
      "constant": true
    },
    {
      "inputs": [],
      "name": "owner",
      "outputs": [
        {
          "internalType": "address",
          "name": "",
          "type": "address"
        }
      ],
      "stateMutability": "view",
      "type": "function",
      "constant": true
    },
    {
      "inputs": [],
      "name": "paused",
      "outputs": [
        {
          "internalType": "bool",
          "name": "",
          "type": "bool"
        }
      ],
      "stateMutability": "view",
      "type": "function",
      "constant": true
    },
    {
      "inputs": [],
      "name": "renounceOwnership",
      "outputs": [],
      "stateMutability": "nonpayable",
      "type": "function"
    },
    {
      "inputs": [
        {
          "internalType": "address",
          "name": "newOwner",
          "type": "address"
        }
      ],
      "name": "transferOwnership",
      "outputs": [],
      "stateMutability": "nonpayable",
      "type": "function"
    },
    {
      "inputs": [
        {
          "internalType": "uint256",
          "name": "",
          "type": "uint256"
        }
      ],
      "name": "warrantCanaries",
      "outputs": [
        {
          "internalType": "uint256",
          "name": "ID",
          "type": "uint256"
        },
        {
          "internalType": "uint256",
          "name": "expirationTime",
          "type": "uint256"
        },
        {
          "internalType": "uint256",
          "name": "lastUpdatedInBlock",
          "type": "uint256"
        },
        {
          "internalType": "string",
          "name": "purpose",
          "type": "string"
        },
        {
          "internalType": "address payable",
          "name": "warrantCanaryOwner",
          "type": "address"
        },
        {
          "internalType": "address payable",
          "name": "trustedThirdParty",
          "type": "address"
        },
        {
          "internalType": "uint256",
          "name": "enclosedFunds",
          "type": "uint256"
        }
      ],
      "stateMutability": "view",
      "type": "function",
      "constant": true
    },
    {
      "inputs": [
        {
          "internalType": "uint256",
          "name": "expirationTime_",
          "type": "uint256"
        },
        {
          "internalType": "string",
          "name": "purpose_",
          "type": "string"
        },
        {
          "internalType": "address payable",
          "name": "trustedThirdParty_",
          "type": "address"
        }
      ],
      "name": "createWarrantCanary",
      "outputs": [],
      "stateMutability": "payable",
      "type": "function",
      "payable": true
    },
    {
      "inputs": [
        {
          "internalType": "uint256",
          "name": "warrantCanaryID_",
          "type": "uint256"
        },
        {
          "internalType": "uint256",
          "name": "newExpirationTime_",
          "type": "uint256"
        }
      ],
      "name": "updateExpiration",
      "outputs": [],
      "stateMutability": "nonpayable",
      "type": "function"
    },
    {
      "inputs": [
        {
          "internalType": "uint256",
          "name": "warrantCanaryID_",
          "type": "uint256"
        }
      ],
      "name": "addFunds",
      "outputs": [],
      "stateMutability": "payable",
      "type": "function",
      "payable": true
    },
    {
      "inputs": [
        {
          "internalType": "uint256",
          "name": "warrantCanaryID_",
          "type": "uint256"
        },
        {
          "internalType": "address payable",
          "name": "newTrustedThirdParty_",
          "type": "address"
        }
      ],
      "name": "changeTrustedThirdParty",
      "outputs": [],
      "stateMutability": "nonpayable",
      "type": "function"
    },
    {
      "inputs": [
        {
          "internalType": "uint256",
          "name": "warrantCanaryID_",
          "type": "uint256"
        },
        {
          "internalType": "uint256",
          "name": "fundsToWithdraw_",
          "type": "uint256"
        }
      ],
      "name": "withdrawSomeFunds",
      "outputs": [],
      "stateMutability": "nonpayable",
      "type": "function"
    },
    {
      "inputs": [
        {
          "internalType": "uint256",
          "name": "warrantCanaryID_",
          "type": "uint256"
        }
      ],
      "name": "withdrawAllFunds",
      "outputs": [],
      "stateMutability": "nonpayable",
      "type": "function"
    },
    {
      "inputs": [
        {
          "internalType": "uint256",
          "name": "warrantCanaryID_",
          "type": "uint256"
        }
      ],
      "name": "deleteWarrantCanary",
      "outputs": [],
      "stateMutability": "nonpayable",
      "type": "function"
    },
    {
      "inputs": [
        {
          "internalType": "address",
          "name": "wcOwner",
          "type": "address"
        }
      ],
      "name": "getIDsOwned",
      "outputs": [
        {
          "internalType": "uint256[]",
          "name": "",
          "type": "uint256[]"
        }
      ],
      "stateMutability": "view",
      "type": "function",
      "constant": true
    },
    {
      "inputs": [
        {
          "internalType": "address",
          "name": "wcTrusted",
          "type": "address"
        }
      ],
      "name": "getIDsTrusted",
      "outputs": [
        {
          "internalType": "uint256[]",
          "name": "",
          "type": "uint256[]"
        }
      ],
      "stateMutability": "view",
      "type": "function",
      "constant": true
    },
    {
      "inputs": [],
      "name": "pauseContract",
      "outputs": [],
      "stateMutability": "nonpayable",
      "type": "function"
    },
    {
      "inputs": [],
      "name": "unpauseContract",
      "outputs": [],
      "stateMutability": "nonpayable",
      "type": "function"
    },
    {
      "inputs": [],
      "name": "retrieveExcessFunds",
      "outputs": [],
      "stateMutability": "nonpayable",
      "type": "function"
    }
  ],
  "bytecode": "0x608060405234801561001057600080fd5b5061001a3361002c565b6000805460ff60a01b1916905561007c565b600080546001600160a01b038381166001600160a01b0319831681178455604051919092169283917f8be0079c531659141344cd1fd0a4f28419497f9722a3daafe3b4186f6b6457e09190a35050565b6120328061008b6000396000f3fe60806040526004361061015f5760003560e01c80638da5cb5b116100c0578063be99970511610074578063e12ecf5c11610059578063e12ecf5c14610368578063eb611d431461039b578063f2fde38b146103bb57600080fd5b8063be9997051461033f578063df3895811461035257600080fd5b8063a00a4601116100a5578063a00a4601146102ea578063a33616991461030a578063b33712c51461032a57600080fd5b80638da5cb5b146102a257806393e601ce146102ca57600080fd5b8063439766ce116101175780636d3cf9be116100fc5780636d3cf9be146102405780636fc7856714610260578063715018a61461028d57600080fd5b8063439766ce146102015780635c975abb1461021657600080fd5b80630a8fc6b7116101485780630a8fc6b7146101b9578063190f719e146101ce578063408d47f4146101ee57600080fd5b806305b166db1461016457806308eb9cd814610197575b600080fd5b34801561017057600080fd5b5061018461017f366004611c7b565b6103db565b6040519081526020015b60405180910390f35b3480156101a357600080fd5b506101b76101b2366004611cb7565b61040c565b005b3480156101c557600080fd5b506101b761070a565b3480156101da57600080fd5b506101846101e9366004611c7b565b61084f565b6101b76101fc366004611cfd565b61086b565b34801561020d57600080fd5b506101b7610b75565b34801561022257600080fd5b50600054600160a01b900460ff16604051901515815260200161018e565b34801561024c57600080fd5b506101b761025b366004611dc8565b610bd9565b34801561026c57600080fd5b5061028061027b366004611de1565b610f0e565b60405161018e9190611e05565b34801561029957600080fd5b506101b7610f7a565b3480156102ae57600080fd5b506000546040516001600160a01b03909116815260200161018e565b3480156102d657600080fd5b506102806102e5366004611de1565b610fde565b3480156102f657600080fd5b506101b7610305366004611e49565b611048565b34801561031657600080fd5b506101b7610325366004611e49565b611138565b34801561033657600080fd5b506101b761139f565b6101b761034d366004611dc8565b611401565b34801561035e57600080fd5b5061018460015481565b34801561037457600080fd5b50610388610383366004611dc8565b611577565b60405161018e9796959493929190611eb8565b3480156103a757600080fd5b506101b76103b6366004611dc8565b611649565b3480156103c757600080fd5b506101b76103d6366004611de1565b6117bf565b600460205281600052604060002081815481106103f757600080fd5b90600052602060002001600091509150505481565b60008281526002602052604090206004015482906001600160a01b031633146104a25760405162461bcd60e51b815260206004820152602d60248201527f596f7520617265206e6f7420746865206f776e6572206f66207468697320776160448201527f7272616e742063616e6172792e0000000000000000000000000000000000000060648201526084015b60405180910390fd5b33826001600160a01b0381168214156105235760405162461bcd60e51b815260206004820152603c60248201527f547275737465642074686972642070617274792063616e6e6f7420626520746860448201527f652073616d65206164647265737320617320746865206f776e65722e000000006064820152608401610499565b6001600160a01b0384166105dc57600085815260026020526040902060060154156105dc5760405162461bcd60e51b815260206004820152604a60248201527f547275737465642074686972642070617274792063616e206f6e6c792062652060448201527f73657420746f2030783020696620746865726520617265206e6f2066756e647360648201527f20656e636c6f7365642e00000000000000000000000000000000000000000000608482015260a401610499565b600085815260026020526040902060050180546001600160a01b0386811673ffffffffffffffffffffffffffffffffffffffff19831617909255168015610665576001600160a01b038116600090815260046020526040902061063f90876118a1565b6001600160a01b038216600090815260046020526040902081546106639290611b57565b505b6001600160a01b038516156106a0576001600160a01b0385166000908152600460209081526040822080546001810182559083529120018690555b600086815260026020819052604090912043910155604080518781526001600160a01b0380841660208301528716918101919091527f6bb235e68311b040fc7092b2dbd534a3d52523ea34c79ede975d15bbb9717dac9060600160405180910390a1505050505050565b6000546001600160a01b031633146107645760405162461bcd60e51b815260206004820181905260248201527f4f776e61626c653a2063616c6c6572206973206e6f7420746865206f776e65726044820152606401610499565b6000805b6001548110156107a25760008181526002602052604090206006015461078e9083611f19565b91508061079a81611f31565b915050610768565b5060006107af8247611f4c565b604051909150600090339083908381818185875af1925050503d80600081146107f4576040519150601f19603f3d011682016040523d82523d6000602084013e6107f9565b606091505b505090508061084a5760405162461bcd60e51b815260206004820152601560248201527f4661696c656420746f2073656e642045746865722e00000000000000000000006044820152606401610499565b505050565b600360205281600052604060002081815481106103f757600080fd5b806001600160a01b0381166109145734156109145760405162461bcd60e51b815260206004820152604a60248201527f46756e64732063616e206f6e6c792062652073656e7420746f2077617272616e60448201527f742063616e61726965732077697468206120747275737465642074686972642060648201527f7061727479207365742e00000000000000000000000000000000000000000000608482015260a401610499565b33826001600160a01b0381168214156109955760405162461bcd60e51b815260206004820152603c60248201527f547275737465642074686972642070617274792063616e6e6f7420626520746860448201527f652073616d65206164647265737320617320746865206f776e65722e000000006064820152608401610499565b600054600160a01b900460ff16156109ef5760405162461bcd60e51b815260206004820152601060248201527f5061757361626c653a20706175736564000000000000000000000000000000006044820152606401610499565b6040805160e0810182526001805480835260208084018b815243858701908152606086018c81523360808801526001600160a01b038c1660a08801523460c088015260009485526002808552979094208651815591519482019490945592519483019490945551805192939192610a6c9260038501920190611ba7565b50608082015160048201805473ffffffffffffffffffffffffffffffffffffffff199081166001600160a01b039384161790915560a084015160058401805490921690831617905560c09092015160069091015533600090815260036020908152604082206001805482549182018355918452919092200155841615610b1b576001600160a01b0384166000908152600460209081526040822060018054825491820183559184529190922001555b7fd560abee200b32c0ca4322c10733869cb0a82a192f38007d95e6e04ad57247bb6001548686604051610b5093929190611f63565b60405180910390a160018054906000610b6883611f31565b9190505550505050505050565b6000546001600160a01b03163314610bcf5760405162461bcd60e51b815260206004820181905260248201527f4f776e61626c653a2063616c6c6572206973206e6f7420746865206f776e65726044820152606401610499565b610bd7611985565b565b60008181526002602052604090206004015481906001600160a01b0316331480610c1c57506000818152600260205260409020600501546001600160a01b031633145b610c9f5760405162461bcd60e51b815260206004820152604860248201527f596f7520617265206e65697468657220746865206f776e6572206f722074727560448201527f73746564207468697264207061727479206f6620746869732077617272616e746064820152671031b0b730b93c9760c11b608482015260a401610499565b6000818152600260205260409020600501546001600160a01b0316331415610d2e57600081815260026020526040902060010154421015610d2e5760405162461bcd60e51b815260206004820152602360248201527f57617272616e742063616e61727920686173206e6f742065787069726564207960448201526232ba1760e91b6064820152608401610499565b60008281526002602052604090206006015415610db35760405162461bcd60e51b815260206004820152603a60248201527f5468652077617272616e742043616e617279207374696c6c206861732066756e60448201527f647320616e642063616e206e6f742062652064656c657465642e0000000000006064820152608401610499565b600082815260026020908152604080832060048101546005909101546001600160a01b0391821680865260039094529190932091921690610df490856118a1565b6001600160a01b03831660009081526003602052604090208154610e189290611b57565b506001600160a01b03811615610e70576001600160a01b0381166000908152600460205260409020610e4a90856118a1565b6001600160a01b03821660009081526004602052604090208154610e6e9290611b57565b505b600084815260026020819052604082208281556001810183905590810182905590610e9e6003830182611c1b565b5060048101805473ffffffffffffffffffffffffffffffffffffffff19908116909155600582018054909116905560006006909101556040518481527f54164d013fa129c530eb11c78886546a80696d23076583e33d63ed7b58e786e4906020015b60405180910390a150505050565b6001600160a01b038116600090815260036020908152604091829020805483518184028101840190945280845260609392830182828015610f6e57602002820191906000526020600020905b815481526020019060010190808311610f5a575b50505050509050919050565b6000546001600160a01b03163314610fd45760405162461bcd60e51b815260206004820181905260248201527f4f776e61626c653a2063616c6c6572206973206e6f7420746865206f776e65726044820152606401610499565b610bd76000611a52565b6001600160a01b038116600090815260046020908152604091829020805483518184028101840190945280845260609392830182828015610f6e5760200282019190600052602060002090815481526020019060010190808311610f5a5750505050509050919050565b60008281526002602052604090206004015482906001600160a01b031633146110d95760405162461bcd60e51b815260206004820152602d60248201527f596f7520617265206e6f7420746865206f776e6572206f66207468697320776160448201527f7272616e742063616e6172792e000000000000000000000000000000000000006064820152608401610499565b60008381526002602081905260409091206001810180549085905543919092015560408051858152602081018390529081018490527f3b832403229a486b26332faa6e74474ab0342ce3e2e70a5ea6e304d6ced8444d90606001610f00565b60008281526002602052604090206004015482906001600160a01b031633148061117b57506000818152600260205260409020600501546001600160a01b031633145b6111fe5760405162461bcd60e51b815260206004820152604860248201527f596f7520617265206e65697468657220746865206f776e6572206f722074727560448201527f73746564207468697264207061727479206f6620746869732077617272616e746064820152671031b0b730b93c9760c11b608482015260a401610499565b6000818152600260205260409020600501546001600160a01b031633141561128d5760008181526002602052604090206001015442101561128d5760405162461bcd60e51b815260206004820152602360248201527f57617272616e742063616e61727920686173206e6f742065787069726564207960448201526232ba1760e91b6064820152608401610499565b6000838152600260205260409020600601548211156112ab57600080fd5b600083815260026020526040812060060180548492906112cc908490611f4c565b9091555050604051600090339084908381818185875af1925050503d8060008114611313576040519150601f19603f3d011682016040523d82523d6000602084013e611318565b606091505b50509050806113695760405162461bcd60e51b815260206004820152601560248201527f4661696c656420746f2073656e642066756e64732e00000000000000000000006044820152606401610499565b60408051858152602081018590527fb45280ba74023c4957d75e8bf23246d663bb04ad7ff7e1c95f1e50f3fdf55f229101610f00565b6000546001600160a01b031633146113f95760405162461bcd60e51b815260206004820181905260248201527f4f776e61626c653a2063616c6c6572206973206e6f7420746865206f776e65726044820152606401610499565b610bd7611aaf565b6000818152600260205260409020600501546001600160a01b0316806114bb5734156114bb5760405162461bcd60e51b815260206004820152604a60248201527f46756e64732063616e206f6e6c792062652073656e7420746f2077617272616e60448201527f742063616e61726965732077697468206120747275737465642074686972642060648201527f7061727479207365742e00000000000000000000000000000000000000000000608482015260a401610499565b600054600160a01b900460ff16156115155760405162461bcd60e51b815260206004820152601060248201527f5061757361626c653a20706175736564000000000000000000000000000000006044820152606401610499565b60008281526002602052604081206006018054349290611536908490611f19565b9091555050604080518381523460208201527f9d1536d5366de5488817d43b855e05a518cdfbccc94b7cb270ba0d2831162db0910160405180910390a15050565b6002602081905260009182526040909120805460018201549282015460038301805492949391926115a790611f95565b80601f01602080910402602001604051908101604052809291908181526020018280546115d390611f95565b80156116205780601f106115f557610100808354040283529160200191611620565b820191906000526020600020905b81548152906001019060200180831161160357829003601f168201915b505050506004830154600584015460069094015492936001600160a01b03918216939116915087565b60008181526002602052604090206004015481906001600160a01b031633148061168c57506000818152600260205260409020600501546001600160a01b031633145b61170f5760405162461bcd60e51b815260206004820152604860248201527f596f7520617265206e65697468657220746865206f776e6572206f722074727560448201527f73746564207468697264207061727479206f6620746869732077617272616e746064820152671031b0b730b93c9760c11b608482015260a401610499565b6000818152600260205260409020600501546001600160a01b031633141561179e5760008181526002602052604090206001015442101561179e5760405162461bcd60e51b815260206004820152602360248201527f57617272616e742063616e61727920686173206e6f742065787069726564207960448201526232ba1760e91b6064820152608401610499565b6000828152600260205260409020600601546117bb908390611138565b5050565b6000546001600160a01b031633146118195760405162461bcd60e51b815260206004820181905260248201527f4f776e61626c653a2063616c6c6572206973206e6f7420746865206f776e65726044820152606401610499565b6001600160a01b0381166118955760405162461bcd60e51b815260206004820152602660248201527f4f776e61626c653a206e6577206f776e657220697320746865207a65726f206160448201527f64647265737300000000000000000000000000000000000000000000000000006064820152608401610499565b61189e81611a52565b50565b6000805b835481118015906118d25750828482815481106118c4576118c4611fd0565b906000526020600020015414155b156118e957806118e181611f31565b9150506118a5565b83546118f790600190611f4c565b811015611955578361190a826001611f19565b8154811061191a5761191a611fd0565b906000526020600020015484828154811061193757611937611fd0565b6000918252602090912001558061194d81611f31565b9150506118e9565b8380548061196557611965611fe6565b600190038181906000526020600020016000905590558391505092915050565b600054600160a01b900460ff16156119df5760405162461bcd60e51b815260206004820152601060248201527f5061757361626c653a20706175736564000000000000000000000000000000006044820152606401610499565b600080547fffffffffffffffffffffff00ffffffffffffffffffffffffffffffffffffffff16600160a01b1790557f62e78cea01bee320cd4e420270b5ea74000d11b0c9f74754ebdbfc544b05a258611a353390565b6040516001600160a01b03909116815260200160405180910390a1565b600080546001600160a01b0383811673ffffffffffffffffffffffffffffffffffffffff19831681178455604051919092169283917f8be0079c531659141344cd1fd0a4f28419497f9722a3daafe3b4186f6b6457e09190a35050565b600054600160a01b900460ff16611b085760405162461bcd60e51b815260206004820152601460248201527f5061757361626c653a206e6f74207061757365640000000000000000000000006044820152606401610499565b600080547fffffffffffffffffffffff00ffffffffffffffffffffffffffffffffffffffff1690557f5db9ee0a495bf2e6ff9c91a7834c1ba4fdd244a5e8aa4e537bd38aeae4b073aa33611a35565b828054828255906000526020600020908101928215611b975760005260206000209182015b82811115611b97578254825591600101919060010190611b7c565b50611ba3929150611c51565b5090565b828054611bb390611f95565b90600052602060002090601f016020900481019282611bd55760008555611b97565b82601f10611bee57805160ff1916838001178555611b97565b82800160010185558215611b97579182015b82811115611b97578251825591602001919060010190611c00565b508054611c2790611f95565b6000825580601f10611c37575050565b601f01602090049060005260206000209081019061189e91905b5b80821115611ba35760008155600101611c52565b6001600160a01b038116811461189e57600080fd5b60008060408385031215611c8e57600080fd5b8235611c9981611c66565b946020939093013593505050565b8035611cb281611c66565b919050565b60008060408385031215611cca57600080fd5b823591506020830135611cdc81611c66565b809150509250929050565b634e487b7160e01b600052604160045260246000fd5b600080600060608486031215611d1257600080fd5b83359250602084013567ffffffffffffffff80821115611d3157600080fd5b818601915086601f830112611d4557600080fd5b813581811115611d5757611d57611ce7565b604051601f8201601f19908116603f01168101908382118183101715611d7f57611d7f611ce7565b81604052828152896020848701011115611d9857600080fd5b826020860160208301376000602084830101528096505050505050611dbf60408501611ca7565b90509250925092565b600060208284031215611dda57600080fd5b5035919050565b600060208284031215611df357600080fd5b8135611dfe81611c66565b9392505050565b6020808252825182820181905260009190848201906040850190845b81811015611e3d57835183529284019291840191600101611e21565b50909695505050505050565b60008060408385031215611e5c57600080fd5b50508035926020909101359150565b6000815180845260005b81811015611e9157602081850181015186830182015201611e75565b81811115611ea3576000602083870101525b50601f01601f19169290920160200192915050565b87815286602082015285604082015260e060608201526000611edd60e0830187611e6b565b6001600160a01b0395861660808401529390941660a082015260c0015295945050505050565b634e487b7160e01b600052601160045260246000fd5b60008219821115611f2c57611f2c611f03565b500190565b6000600019821415611f4557611f45611f03565b5060010190565b600082821015611f5e57611f5e611f03565b500390565b838152606060208201526000611f7c6060830185611e6b565b90506001600160a01b0383166040830152949350505050565b600181811c90821680611fa957607f821691505b60208210811415611fca57634e487b7160e01b600052602260045260246000fd5b50919050565b634e487b7160e01b600052603260045260246000fd5b634e487b7160e01b600052603160045260246000fdfea2646970667358221220f1b01cf16018de66d36d059d9c954dcb37731c1439d281f72c11acba925516f664736f6c63430008090033",
  "immutableReferences": {},
  "source": "// SPDX-License-Identifier: GPL-3.0\npragma solidity 0.8.9;\nimport \"@openzeppelin/contracts/access/Ownable.sol\";\nimport \"@openzeppelin/contracts/security/Pausable.sol\";\n\n/// @title Warrant Canary with enclosed funds\n/// @author haurog\n/// @notice A warrant canary contract implementation which allows enclosed funds (ETH only) to be withdrawn by a third party upon expiration\n\ncontract WarrantCanary is Ownable, Pausable {\n\n    uint public IDcount;\n    struct warrantCanary {\n        uint ID;\n        uint expirationTime;\n        uint lastUpdatedInBlock;  // tracks in which block expiration or trusted third party has been changed.\n        string purpose;\n        address payable warrantCanaryOwner;\n        address payable trustedThirdParty;\n        uint enclosedFunds;\n    }\n\n    mapping(uint => warrantCanary) public  warrantCanaries;  // All warrant canaries accessed by IDs.\n    mapping(address => uint[]) public IDsOwned;  // Store all warrant canaries that an address owns.\n    mapping(address => uint[]) public IDsTrusted;  // Store all warrant canaries that have this address as a trusted third party.\n\n    event LogCreated(uint warrantCanaryID, string purpose,address trustedThirdParty);\n    event LogExpirationUpdated(uint warrantCanaryID, uint oldExpirationBlock, uint newExpirationBlock);\n    event LogFundsAdded(uint warrantCanaryID, uint amount);\n    event LogChangedTrustedThirdParty(uint warrantCanaryID, address oldTrustedThirdParty, address newTrustedThirdParty);\n    event LogFundsWithdrawn(uint warrantCanaryID, uint amount);\n    event LogDeleted(uint warrantCanaryID);\n\n    modifier onlyCanaryOwner(uint warrantCanaryID) {\n        require(msg.sender == warrantCanaries[warrantCanaryID].warrantCanaryOwner,\n                \"You are not the owner of this warrant canary.\");\n        _;\n    }\n\n    modifier onlyCanaryOwnerOrTrustedThirdParty(uint warrantCanaryID) {\n        require(msg.sender == warrantCanaries[warrantCanaryID].warrantCanaryOwner ||\n                msg.sender == warrantCanaries[warrantCanaryID].trustedThirdParty,\n                \"You are neither the owner or trusted third party of this warrant canary.\");\n        if (msg.sender == warrantCanaries[warrantCanaryID].trustedThirdParty) {\n            require(block.timestamp >= warrantCanaries[warrantCanaryID].expirationTime,\n                \"Warrant canary has not expired yet.\");\n        }\n        _;\n    }\n\n    modifier fundsOnlyWithThirdParty(address trustedThirdParty_) {\n        // only allow funding if a trusted third party is chosen\n        if (trustedThirdParty_ == address(0)) {\n            require(msg.value == 0, \"Funds can only be sent to warrant canaries with a trusted third party set.\");\n        }\n        _;\n    }\n\n    modifier thirdPartyIsDifferentFromOwner(address owner_, address trustedThirdParty_) {\n        // Third Party cannot be set to warrant canary owner\n        require(owner_ != trustedThirdParty_,\n                \"Trusted third party cannot be the same address as the owner.\");\n        _;\n    }\n\n    /// @notice Creates a new Warrant Canary with trusted thirdParty (can be set to 0x0).\n    /// @param expirationTime_: The time (unix epoch in seconds) when the warrant canary expires.\n    /// @param purpose_: A string describing the purpose of the warrant canary.\n    /// @param trustedThirdParty_: An address of a trusted third party. Can be 0x0 if a plain warrant canary should be used.\n    function createWarrantCanary(\n        uint expirationTime_,\n        string memory purpose_,\n        address payable trustedThirdParty_\n    )\n        public\n        payable\n        fundsOnlyWithThirdParty(trustedThirdParty_)\n        thirdPartyIsDifferentFromOwner(msg.sender, trustedThirdParty_)\n        whenNotPaused()\n    {\n        warrantCanaries[IDcount] = warrantCanary(\n        {\n            ID : IDcount,\n            expirationTime: expirationTime_,\n            lastUpdatedInBlock: block.number,\n            purpose: purpose_,\n            warrantCanaryOwner: payable(msg.sender),\n            trustedThirdParty: trustedThirdParty_,\n            enclosedFunds: msg.value\n        });\n\n        IDsOwned[msg.sender].push(IDcount);\n\n        if (trustedThirdParty_!= address(0)) {\n            IDsTrusted[trustedThirdParty_].push(IDcount);\n        }\n\n        emit LogCreated(IDcount, purpose_, trustedThirdParty_);\n\n        IDcount++;\n\n    }\n\n    /// @notice Update the expiration time for an owned warrant canary contract.\n    /// @param warrantCanaryID_: ID (uint) of the warrant canary whose expiration time should be changed.\n    /// @param newExpirationTime_: The time (unix epoch in seconds) when the warrant canary expires.\n    function updateExpiration(uint warrantCanaryID_, uint newExpirationTime_)\n        public\n        onlyCanaryOwner(warrantCanaryID_)\n    {\n        uint oldExpirationTime = warrantCanaries[warrantCanaryID_].expirationTime;\n        warrantCanaries[warrantCanaryID_].expirationTime= newExpirationTime_;\n        updateLastUpdatedInBlock(warrantCanaryID_);\n        emit LogExpirationUpdated(warrantCanaryID_, oldExpirationTime, newExpirationTime_);\n    }\n\n    /// @notice Add funds to a warrant canary (ETH only).\n    /// @param warrantCanaryID_: ID (uint) of the warrant canary to which the funds are added.\n    function addFunds(uint warrantCanaryID_)\n    public\n    payable\n    fundsOnlyWithThirdParty(warrantCanaries[warrantCanaryID_].trustedThirdParty)\n    whenNotPaused()\n    {\n        warrantCanaries[warrantCanaryID_].enclosedFunds += msg.value;\n        emit LogFundsAdded(warrantCanaryID_, msg.value);\n    }\n\n    /// @notice Change the address of the trusted third party. The 0x0 address is ownly allowed if no funds are enclosed.\n    /// @param warrantCanaryID_: ID (uint) of the warrant canary whose trusted third party should be changed.\n    function changeTrustedThirdParty(\n        uint warrantCanaryID_,\n        address payable newTrustedThirdParty_\n    )\n        public\n        onlyCanaryOwner(warrantCanaryID_)\n        thirdPartyIsDifferentFromOwner(msg.sender, newTrustedThirdParty_)\n    {\n        if (newTrustedThirdParty_ == address(0)) {\n            require(warrantCanaries[warrantCanaryID_].enclosedFunds == 0,\n            \"Trusted third party can only be set to 0x0 if there are no funds enclosed.\");\n        }\n        address oldTrustedThirdParty = warrantCanaries[warrantCanaryID_].trustedThirdParty;\n        warrantCanaries[warrantCanaryID_].trustedThirdParty = newTrustedThirdParty_;\n        if (oldTrustedThirdParty != address(0)) {\n            IDsTrusted[oldTrustedThirdParty] = removeByValue(IDsTrusted[oldTrustedThirdParty], warrantCanaryID_);\n        }\n        if (newTrustedThirdParty_ != address(0)) {\n            IDsTrusted[newTrustedThirdParty_].push(warrantCanaryID_);\n        }\n        updateLastUpdatedInBlock(warrantCanaryID_);\n        emit LogChangedTrustedThirdParty(warrantCanaryID_, oldTrustedThirdParty, newTrustedThirdParty_);\n    }\n\n    /// @notice Withdraw a part of the funds from the warrant canary\n    /// @param warrantCanaryID_: ID (uint) of the warrant canary whose funds should be withdrawn\n    function withdrawSomeFunds(uint warrantCanaryID_, uint fundsToWithdraw_)\n        public\n        onlyCanaryOwnerOrTrustedThirdParty(warrantCanaryID_)\n    {\n        require(warrantCanaries[warrantCanaryID_].enclosedFunds >= fundsToWithdraw_);\n        warrantCanaries[warrantCanaryID_].enclosedFunds -= fundsToWithdraw_;\n        (bool sent, ) = msg.sender.call{value: fundsToWithdraw_}(\"\");\n        require(sent, \"Failed to send funds.\");\n        emit LogFundsWithdrawn(warrantCanaryID_, fundsToWithdraw_);\n    }\n\n    /// @notice Withdraw all funds from the warrant canary.\n    /// @param warrantCanaryID_: ID (uint) of the warrant canary whose full funds should be withdrawn.\n    function withdrawAllFunds(uint warrantCanaryID_)\n        public\n        onlyCanaryOwnerOrTrustedThirdParty(warrantCanaryID_)\n    {\n        withdrawSomeFunds(warrantCanaryID_, warrantCanaries[warrantCanaryID_].enclosedFunds);\n    }\n\n    /// @notice Delete a given warrant canary. Deletion is only possible if no funds are enclosed.\n    /// @param warrantCanaryID_: ID (uint) of the warrant canary which should be deleted.\n    /// @dev The function also deletes the warrant canary ID from all IDsTrusted and IDsOwned.\n    function deleteWarrantCanary(uint warrantCanaryID_)\n        public\n        onlyCanaryOwnerOrTrustedThirdParty(warrantCanaryID_) {\n        // deletes the warrant canary from the mapping (only possible if enclosedFunds = 0)\n        require(warrantCanaries[warrantCanaryID_].enclosedFunds == 0,\n        \"The warrant Canary still has funds and can not be deleted.\");\n\n        address wcOwner = warrantCanaries[warrantCanaryID_].warrantCanaryOwner;\n        address wcTrusted = warrantCanaries[warrantCanaryID_].trustedThirdParty;\n\n        IDsOwned[wcOwner] = removeByValue(IDsOwned[wcOwner], warrantCanaryID_);\n\n\n        if (wcTrusted != address(0)) {\n            IDsTrusted[wcTrusted] = removeByValue(IDsTrusted[wcTrusted], warrantCanaryID_);\n        }\n\n        delete warrantCanaries[warrantCanaryID_];\n\n        emit LogDeleted(warrantCanaryID_);\n    }\n\n    /// @notice A helper function to remove an entry from an array by value.\n    /// @param array_: Array from which an entry should be removed.\n    /// @param valueToDelete_: Value of the entry to be deleted.\n    /// @dev Keeps the order of the non removed elements (more expensive and not really necessary in this project).\n    function removeByValue(uint[] storage array_, uint valueToDelete_)\n        private\n        returns(uint[] storage)\n    {\n        uint index = 0;\n        // find index of the value (is unique)\n        for(; index <= array_.length && array_[index] != valueToDelete_ ; index++){}\n\n        // shift all elements after index one element upwards\n        for (; index < array_.length - 1; index++){\n            array_[index] = array_[index + 1];\n        }\n        // delete last element\n        array_.pop();\n\n        return array_;\n    }\n\n    /// @notice A getter function get an array of all owned warrant Canary IDs back.\n    /// @param wcOwner: Address of which all the owned IDs are returned.\n    /// @return an array (can be empty) with all owned warrant canaries.\n    function getIDsOwned(address wcOwner)\n        public\n        view\n        returns(uint[] memory)\n    {\n        return IDsOwned[wcOwner];\n    }\n\n    /// @notice A getter function get an array of all warrant Canary IDs back where the address is a trusted third party.\n    /// @param wcTrusted: Address of which all the trusted third party warrant canaries are returned.\n    /// @return an array (can be empty) with all the IDs for which the address is a trusted third party.\n    function getIDsTrusted(address wcTrusted)\n        public\n        view\n        returns(uint[] memory)\n    {\n        return IDsTrusted[wcTrusted];\n    }\n\n    /// @notice Updates the variable \"lastUpdatedInBlock\" in the warrant canary.\n    /// @param warrantCanaryID_: ID (uint) of the warrant canary which should be deleted.\n    function updateLastUpdatedInBlock(uint warrantCanaryID_) internal {\n        warrantCanaries[warrantCanaryID_].lastUpdatedInBlock = block.number;\n    }\n\n    /// @notice Pauses the contract. Contract owner only, therefore very minimal function.\n    function pauseContract() public onlyOwner() {\n        _pause();\n    }\n\n    /// @notice Unpauses the contract. Contract owner only, therefore very minimal function.\n    function unpauseContract() public onlyOwner() {\n        _unpause();\n    }\n\n    /// @notice Retrieves Ether which is not assciated with any warrant Canary. Contract owner only, therefore very minimal function.\n    function retrieveExcessFunds() public onlyOwner() {\n        uint allEnclosedFunds;\n        for(uint i = 0; i < IDcount; i++)\n        {\n            allEnclosedFunds += warrantCanaries[i].enclosedFunds;\n        }\n        uint withdrawAmount = address(this).balance - allEnclosedFunds;\n        (bool sent, ) = msg.sender.call{value: withdrawAmount}(\"\");\n        require(sent, \"Failed to send Ether.\");\n    }\n}\n",
  "sourcePath": "/home/linsubria/Documents/Projekte/20210720_Consensys_bootcamp/bootcamp/20211101_Final_Project/blockchain-developer-bootcamp-final-project/contracts/WarrantCanary.sol",
  "compiler": {
    "name": "solc",
    "version": "0.8.9+commit.e5eed63a.Emscripten.clang"
  },
  "schemaVersion": "3.4.3",
  "updatedAt": "2021-11-24T15:52:09.559Z",
  "networkType": "ethereum",
  "devdoc": {
    "author": "haurog",
    "kind": "dev",
    "methods": {
      "addFunds(uint256)": {
        "params": {
          "warrantCanaryID_": ": ID (uint) of the warrant canary to which the funds are added."
        }
      },
      "changeTrustedThirdParty(uint256,address)": {
        "params": {
          "warrantCanaryID_": ": ID (uint) of the warrant canary whose trusted third party should be changed."
        }
      },
      "createWarrantCanary(uint256,string,address)": {
        "params": {
          "expirationTime_": ": The time (unix epoch in seconds) when the warrant canary expires.",
          "purpose_": ": A string describing the purpose of the warrant canary.",
          "trustedThirdParty_": ": An address of a trusted third party. Can be 0x0 if a plain warrant canary should be used."
        }
      },
      "deleteWarrantCanary(uint256)": {
        "details": "The function also deletes the warrant canary ID from all IDsTrusted and IDsOwned.",
        "params": {
          "warrantCanaryID_": ": ID (uint) of the warrant canary which should be deleted."
        }
      },
      "getIDsOwned(address)": {
        "params": {
          "wcOwner": ": Address of which all the owned IDs are returned."
        },
        "returns": {
          "_0": "an array (can be empty) with all owned warrant canaries."
        }
      },
      "getIDsTrusted(address)": {
        "params": {
          "wcTrusted": ": Address of which all the trusted third party warrant canaries are returned."
        },
        "returns": {
          "_0": "an array (can be empty) with all the IDs for which the address is a trusted third party."
        }
      },
      "owner()": {
        "details": "Returns the address of the current owner."
      },
      "paused()": {
        "details": "Returns true if the contract is paused, and false otherwise."
      },
      "renounceOwnership()": {
        "details": "Leaves the contract without owner. It will not be possible to call `onlyOwner` functions anymore. Can only be called by the current owner. NOTE: Renouncing ownership will leave the contract without an owner, thereby removing any functionality that is only available to the owner."
      },
      "transferOwnership(address)": {
        "details": "Transfers ownership of the contract to a new account (`newOwner`). Can only be called by the current owner."
      },
      "updateExpiration(uint256,uint256)": {
        "params": {
          "newExpirationTime_": ": The time (unix epoch in seconds) when the warrant canary expires.",
          "warrantCanaryID_": ": ID (uint) of the warrant canary whose expiration time should be changed."
        }
      },
      "withdrawAllFunds(uint256)": {
        "params": {
          "warrantCanaryID_": ": ID (uint) of the warrant canary whose full funds should be withdrawn."
        }
      },
      "withdrawSomeFunds(uint256,uint256)": {
        "params": {
          "warrantCanaryID_": ": ID (uint) of the warrant canary whose funds should be withdrawn"
        }
      }
    },
    "title": "Warrant Canary with enclosed funds",
    "version": 1
  },
  "userdoc": {
    "kind": "user",
    "methods": {
      "addFunds(uint256)": {
        "notice": "Add funds to a warrant canary (ETH only)."
      },
      "changeTrustedThirdParty(uint256,address)": {
        "notice": "Change the address of the trusted third party. The 0x0 address is ownly allowed if no funds are enclosed."
      },
      "createWarrantCanary(uint256,string,address)": {
        "notice": "Creates a new Warrant Canary with trusted thirdParty (can be set to 0x0)."
      },
      "deleteWarrantCanary(uint256)": {
        "notice": "Delete a given warrant canary. Deletion is only possible if no funds are enclosed."
      },
      "getIDsOwned(address)": {
        "notice": "A getter function get an array of all owned warrant Canary IDs back."
      },
      "getIDsTrusted(address)": {
        "notice": "A getter function get an array of all warrant Canary IDs back where the address is a trusted third party."
      },
      "pauseContract()": {
        "notice": "Pauses the contract. Contract owner only, therefore very minimal function."
      },
      "retrieveExcessFunds()": {
        "notice": "Retrieves Ether which is not assciated with any warrant Canary. Contract owner only, therefore very minimal function."
      },
      "unpauseContract()": {
        "notice": "Unpauses the contract. Contract owner only, therefore very minimal function."
      },
      "updateExpiration(uint256,uint256)": {
        "notice": "Update the expiration time for an owned warrant canary contract."
      },
      "withdrawAllFunds(uint256)": {
        "notice": "Withdraw all funds from the warrant canary."
      },
      "withdrawSomeFunds(uint256,uint256)": {
        "notice": "Withdraw a part of the funds from the warrant canary"
      }
    },
    "notice": "A warrant canary contract implementation which allows enclosed funds (ETH only) to be withdrawn by a third party upon expiration",
    "version": 1
  }
}