{
  "contractName": "WarrantCanaray",
  "abi": [
    {
      "inputs": [
        {
          "internalType": "uint256",
          "name": "expirationBlock",
          "type": "uint256"
        },
        {
          "internalType": "string",
          "name": "purpose",
          "type": "string"
        },
        {
          "internalType": "address",
          "name": "trustedThirdParty",
          "type": "address"
        }
      ],
      "name": "createWarrantCanary",
      "outputs": [],
      "stateMutability": "payable",
      "type": "function"
    },
    {
      "inputs": [
        {
          "internalType": "uint256",
          "name": "expirationBlock",
          "type": "uint256"
        },
        {
          "internalType": "string",
          "name": "purpose",
          "type": "string"
        }
      ],
      "name": "createWarrantCanarySimple",
      "outputs": [],
      "stateMutability": "nonpayable",
      "type": "function"
    },
    {
      "inputs": [
        {
          "internalType": "uint256",
          "name": "newExpirationBlock",
          "type": "uint256"
        },
        {
          "internalType": "uint256",
          "name": "warrantCanaryID",
          "type": "uint256"
        }
      ],
      "name": "updateExpiration",
      "outputs": [],
      "stateMutability": "nonpayable",
      "type": "function"
    },
    {
      "inputs": [
        {
          "internalType": "uint256",
          "name": "warrantCanaryID",
          "type": "uint256"
        }
      ],
      "name": "addFunds",
      "outputs": [],
      "stateMutability": "payable",
      "type": "function"
    },
    {
      "inputs": [
        {
          "internalType": "address",
          "name": "newTrustedThirdParty",
          "type": "address"
        }
      ],
      "name": "changeTrustedThirdParty",
      "outputs": [],
      "stateMutability": "nonpayable",
      "type": "function"
    },
    {
      "inputs": [
        {
          "internalType": "uint256",
          "name": "warrantCanaryID",
          "type": "uint256"
        },
        {
          "internalType": "uint256",
          "name": "fundsToWithdraw",
          "type": "uint256"
        }
      ],
      "name": "withdrawSomeFunds",
      "outputs": [],
      "stateMutability": "nonpayable",
      "type": "function"
    },
    {
      "inputs": [
        {
          "internalType": "uint256",
          "name": "warrantCanaryID",
          "type": "uint256"
        }
      ],
      "name": "withdrawAllFunds",
      "outputs": [],
      "stateMutability": "nonpayable",
      "type": "function"
    },
    {
      "inputs": [
        {
          "internalType": "uint256",
          "name": "warrantCanaryID",
          "type": "uint256"
        }
      ],
      "name": "deleteWarrantCanary",
      "outputs": [],
      "stateMutability": "nonpayable",
      "type": "function"
    },
    {
      "inputs": [
        {
          "internalType": "uint256",
          "name": "warrantCanaryID",
          "type": "uint256"
        }
      ],
      "name": "Expiration",
      "outputs": [],
      "stateMutability": "nonpayable",
      "type": "function"
    }
  ],
  "bytecode": "0x608060405234801561001057600080fd5b5061058b806100206000396000f3fe6080604052600436106100865760003560e01c8063a6c5061b11610059578063a6c5061b14610122578063be9997051461014b578063c2e88e7814610167578063cbac425914610190578063eb611d43146101b957610086565b8063408d47f41461008b5780636d3cf9be146100a7578063a00a4601146100d0578063a3361699146100f9575b600080fd5b6100a560048036038101906100a091906103f0565b6101e2565b005b3480156100b357600080fd5b506100ce60048036038101906100c9919061045f565b6101e7565b005b3480156100dc57600080fd5b506100f760048036038101906100f2919061048c565b6101ea565b005b34801561010557600080fd5b50610120600480360381019061011b919061048c565b6101ee565b005b34801561012e57600080fd5b50610149600480360381019061014491906104cc565b6101f2565b005b6101656004803603810190610160919061045f565b6101f6565b005b34801561017357600080fd5b5061018e60048036038101906101899190610528565b6101f9565b005b34801561019c57600080fd5b506101b760048036038101906101b2919061045f565b6101fc565b005b3480156101c557600080fd5b506101e060048036038101906101db919061045f565b6101ff565b005b505050565b50565b5050565b5050565b5050565b50565b50565b50565b50565b6000604051905090565b600080fd5b600080fd5b6000819050919050565b61022981610216565b811461023457600080fd5b50565b60008135905061024681610220565b92915050565b600080fd5b600080fd5b6000601f19601f8301169050919050565b7f4e487b7100000000000000000000000000000000000000000000000000000000600052604160045260246000fd5b61029f82610256565b810181811067ffffffffffffffff821117156102be576102bd610267565b5b80604052505050565b60006102d1610202565b90506102dd8282610296565b919050565b600067ffffffffffffffff8211156102fd576102fc610267565b5b61030682610256565b9050602081019050919050565b82818337600083830152505050565b6000610335610330846102e2565b6102c7565b90508281526020810184848401111561035157610350610251565b5b61035c848285610313565b509392505050565b600082601f8301126103795761037861024c565b5b8135610389848260208601610322565b91505092915050565b600073ffffffffffffffffffffffffffffffffffffffff82169050919050565b60006103bd82610392565b9050919050565b6103cd816103b2565b81146103d857600080fd5b50565b6000813590506103ea816103c4565b92915050565b6000806000606084860312156104095761040861020c565b5b600061041786828701610237565b935050602084013567ffffffffffffffff81111561043857610437610211565b5b61044486828701610364565b9250506040610455868287016103db565b9150509250925092565b6000602082840312156104755761047461020c565b5b600061048384828501610237565b91505092915050565b600080604083850312156104a3576104a261020c565b5b60006104b185828601610237565b92505060206104c285828601610237565b9150509250929050565b600080604083850312156104e3576104e261020c565b5b60006104f185828601610237565b925050602083013567ffffffffffffffff81111561051257610511610211565b5b61051e85828601610364565b9150509250929050565b60006020828403121561053e5761053d61020c565b5b600061054c848285016103db565b9150509291505056fea2646970667358221220f46035a7c15cbd89caee91aad15d9e8daf0c98f3ba1b71fba9feaa74de1989d264736f6c63430008090033",
  "immutableReferences": {},
  "source": "// SPDX-License-Identifier: MIT\npragma solidity ^0.8.0;\n\n/*\n*  This is the initial design of the Warrant Canary contract. This will be only\n*  the scaffolding for the general structure\n*/\n\ncontract WarrantCanaray {\n\n    uint IDcount;\n    address adminOwner;\n\n    struct warrantCanary {\n        uint ID;\n        uint expirationBlock;\n        uint lastUpdatedInBlock;\n        string purpose;\n        address payable warrantCanaryOwner;\n        address payable trustedThirdParty;\n        uint enclosedFunds;\n    }\n\n    mapping(uint => warrantCanary)  warrantCanaries;\n\n\n    modifier onlyCanaryOwner() {\n        _;\n    }\n\n    modifier onlyCanaryOwnerOrTrustedThirdParty() {\n        _;\n    }\n\n    function createWarrantCanary(uint expirationBlock, string memory purpose, address trustedThirdParty) public payable {\n        // Create a new Warrant Canary with trusted thirdParty (can be set to 0x0)\n    }\n\n    function createWarrantCanarySimple(uint expirationBlock, string memory purpose) public {\n        // Calls the normal createWarrantCanary function with trustedThirdParty = 0x0\n    }\n\n    function updateExpiration(uint newExpirationBlock, uint warrantCanaryID) public onlyCanaryOwner {\n        // Update the block number at which a warrant canary expires\n    }\n\n    function addFunds(uint warrantCanaryID) public payable{\n        // add more fund to a warrant canary\n    }\n\n    function changeTrustedThirdParty(address newTrustedThirdParty) public onlyCanaryOwner {\n        // change the address of a trusted third party\n    }\n\n    function withdrawSomeFunds(uint warrantCanaryID, uint fundsToWithdraw) public onlyCanaryOwnerOrTrustedThirdParty {\n        // withdraws the specified amount of funds\n    }\n\n    function withdrawAllFunds(uint warrantCanaryID) public onlyCanaryOwnerOrTrustedThirdParty {\n        // Withdraws all funds from a warrant canary. Calls \"withdrawSomeFunds\" with fundsTOWithDraw = warrantCanary.enclosedFunds\n    }\n\n    function deleteWarrantCanary(uint warrantCanaryID) public onlyCanaryOwnerOrTrustedThirdParty {\n        // deletes the warrant canary from the mapping (only possible if enclosedFunds = 0)\n    }\n\n    function Expiration(uint warrantCanaryID) public {\n        // returns the expiration Block set in the warrantCanary\n    }\n\n}\n",
  "sourcePath": "/home/linsubria/Documents/Projekte/20210720_Consensys_bootcamp/bootcamp/20211101_Final_Project/blockchain-developer-bootcamp-final-project/contracts/WarrantCanary.sol",
  "compiler": {
    "name": "solc",
    "version": "0.8.9+commit.e5eed63a.Emscripten.clang"
  },
  "schemaVersion": "3.4.3",
  "updatedAt": "2021-10-19T14:33:30.511Z",
  "devdoc": {
    "kind": "dev",
    "methods": {},
    "version": 1
  },
  "userdoc": {
    "kind": "user",
    "methods": {},
    "version": 1
  }
}